:020000040000fa
:080000000002040000000000f2
:020000040000fa
:04000800ac02000046
:020000040000fa
:04000c00ac02000042
:020000040000fa
:04001000ac0200003e
:020000040000fa
:04001400ac0200003a
:020000040000fa
:04001800ac02000036
:020000040000fa
:04001c00ac02000032
:020000040000fa
:04002000ac0200002e
:020000040000fa
:04002400ac0200002a
:020000040000fa
:04002800ac02000026
:020000040000fa
:04002c00ac02000022
:020000040000fa
:04003000ac0200001e
:020000040000fa
:04003400ac0200001a
:020000040000fa
:04003800ac02000016
:020000040000fa
:04003c00ac02000012
:020000040000fa
:04004000ac0200000e
:020000040000fa
:040044001214000092
:020000040000fa
:040048002e14000072
:020000040000fa
:04004c00ac02000002
:020000040000fa
:04005000ac020000fe
:020000040000fa
:04005400ac020000fa
:020000040000fa
:04005800ac020000f6
:020000040000fa
:04005c00ac020000f2
:020000040000fa
:04006000ac020000ee
:020000040000fa
:04006400ac020000ea
:020000040000fa
:04006800ac020000e6
:020000040000fa
:04006c00ac020000e2
:020000040000fa
:04007000ac020000de
:020000040000fa
:04007400ac020000da
:020000040000fa
:04007800ac020000d6
:020000040000fa
:04007c00ac020000d2
:020000040000fa
:04008000ac020000ce
:020000040000fa
:04008400ac020000ca
:020000040000fa
:04008800ac020000c6
:020000040000fa
:04008c00ac020000c2
:020000040000fa
:04009000ac020000be
:020000040000fa
:04009400ac020000ba
:020000040000fa
:04009800ac020000b6
:020000040000fa
:04009c00ac020000b2
:020000040000fa
:0400a000920d0000bd
:020000040000fa
:0400a400b00d00009b
:020000040000fa
:0400a800ac020000a6
:020000040000fa
:0400ac002614000016
:020000040000fa
:0400b000ac0200009e
:020000040000fa
:0400b400ac0200009a
:020000040000fa
:0400b800ac02000096
:020000040000fa
:0400bc00ac02000092
:020000040000fa
:0400c000ac0200008e
:020000040000fa
:0400c400ac0200008a
:020000040000fa
:0400c800ac02000086
:020000040000fa
:0400cc00ac02000082
:020000040000fa
:0400d000ac0200007e
:020000040000fa
:0400d400ac0200007a
:020000040000fa
:0400d800ac02000076
:020000040000fa
:0400dc00ac02000072
:020000040000fa
:0400e000ac0200006e
:020000040000fa
:0400e400ac0200006a
:020000040000fa
:0400e800ac02000066
:020000040000fa
:0400ec00ac02000062
:020000040000fa
:0400f000ac0200005e
:020000040000fa
:0400f400ac0200005a
:020000040000fa
:0400f800ac02000056
:020000040000fa
:0400fc00ac02000052
:020000040000fa
:04010000ac0200004d
:020000040000fa
:04010400ac02000049
:020000040000fa
:04010800ac02000045
:020000040000fa
:04010c00ac02000041
:020000040000fa
:04011000ac0200003d
:020000040000fa
:04011400ac02000039
:020000040000fa
:04011800ac02000035
:020000040000fa
:04011c00ac02000031
:020000040000fa
:04012000ac0200002d
:020000040000fa
:04012400ac02000029
:020000040000fa
:04012800ac02000025
:020000040000fa
:04012c00ac02000021
:020000040000fa
:04013000ac0200001d
:020000040000fa
:04013400ac02000019
:020000040000fa
:04013800ac02000015
:020000040000fa
:04013c00ac02000011
:020000040000fa
:04014000ac0200000d
:020000040000fa
:04014400ac02000009
:020000040000fa
:04014800ac02000005
:020000040000fa
:04014c00ac02000001
:020000040000fa
:04015000ac020000fd
:020000040000fa
:04015400ac020000f9
:020000040000fa
:04015800ac020000f5
:020000040000fa
:04015c00ac020000f1
:020000040000fa
:04016000ac020000ed
:020000040000fa
:04016400ac020000e9
:020000040000fa
:04020800ac02000044
:020000040000fa
:04020c00ac02000040
:020000040000fa
:04021000ac0200003c
:020000040000fa
:04021400ac02000038
:020000040000fa
:04021800ac02000034
:020000040000fa
:04021c00ac02000030
:020000040000fa
:04022000ac0200002c
:020000040000fa
:04022400ac02000028
:020000040000fa
:04022800ac02000024
:020000040000fa
:04022c00ac02000020
:020000040000fa
:04023000ac0200001c
:020000040000fa
:04023400ac02000018
:020000040000fa
:04023800ac02000014
:020000040000fa
:04023c00ac02000010
:020000040000fa
:04024000ac0200000c
:020000040000fa
:04024400ac02000008
:020000040000fa
:04024800ac02000004
:020000040000fa
:04024c00ac02000000
:020000040000fa
:04025000ac020000fc
:020000040000fa
:04025400ac020000f8
:020000040000fa
:04025800ac020000f4
:020000040000fa
:04025c00ac020000f0
:020000040000fa
:04026000ac020000ec
:020000040000fa
:04026400ac020000e8
:020000040000fa
:04026800ac020000e4
:020000040000fa
:04026c00ac020000e0
:020000040000fa
:04027000ac020000dc
:020000040000fa
:04027400ac020000d8
:020000040000fa
:04027800ac020000d4
:020000040000fa
:04027c00ac020000d0
:020000040000fa
:04028000ac020000cc
:020000040000fa
:04028400ac020000c8
:020000040000fa
:04028800ac020000c4
:020000040000fa
:04028c00ac020000c0
:020000040000fa
:04029000ac020000bc
:020000040000fa
:04029400ac020000b8
:020000040000fa
:04029800ac020000b4
:020000040000fa
:04029c00ac020000b0
:020000040000fa
:0402a000ac020000ac
:020000040000fa
:0402a400ac020000a8
:020000040000fa
:0402a800ac020000a4
:020000040000fa
:0402ac00ac020000a0
:020000040000fa
:0402b000ac0200009c
:020000040000fa
:0402b400ac02000098
:020000040000fa
:0402b800ac02000094
:020000040000fa
:0402bc00ac02000090
:020000040000fa
:0402c000ac0200008c
:020000040000fa
:0402c400ac02000088
:020000040000fa
:0402c800ac02000084
:020000040000fa
:0402cc00ac02000080
:020000040000fa
:0402d000ac0200007c
:020000040000fa
:0402d400ac02000078
:020000040000fa
:0402d800ac02000074
:020000040000fa
:0402dc00ac02000070
:020000040000fa
:0402e000ac0200006c
:020000040000fa
:0402e400ac02000068
:020000040000fa
:0402e800ac02000064
:020000040000fa
:0402ec00ac02000060
:020000040000fa
:0402f000ac0200005c
:020000040000fa
:0402f400ac02000058
:020000040000fa
:0402f800ac02000054
:020000040000fa
:0402fc00ac02000050
:020000040000fa
:04030000ac0200004b
:020000040000fa
:04030400ac02000047
:020000040000fa
:04030800ac02000043
:020000040000fa
:04030c00ac0200003f
:020000040000fa
:04031000ac0200003b
:020000040000fa
:04031400ac02000037
:020000040000fa
:04031800ac02000033
:020000040000fa
:04031c00ac0200002f
:020000040000fa
:04032000ac0200002b
:020000040000fa
:04032400ac02000027
:020000040000fa
:04032800ac02000023
:020000040000fa
:04032c00ac0200001f
:020000040000fa
:04033000ac0200001b
:020000040000fa
:04033400ac02000017
:020000040000fa
:04033800ac02000013
:020000040000fa
:04033c00ac0200000f
:020000040000fa
:04034000ac0200000b
:020000040000fa
:04034400ac02000007
:020000040000fa
:04034800ac02000003
:020000040000fa
:04034c00ac020000ff
:020000040000fa
:04035000ac020000fb
:020000040000fa
:04035400ac020000f7
:020000040000fa
:04035800ac020000f3
:020000040000fa
:04035c00ac020000ef
:020000040000fa
:04036000ac020000eb
:020000040000fa
:04036400ac020000e7
:020000040000fa
:10040000af8520000e7f24000e0188000000000050
:10041000000020000000e000020032000001200087
:10042000200288000c000700004b21000100200082
:1004300011000700000020000000e0000200320070
:1004400000000200000000004e1402000000000046
:100450000040da000000fe004440a90080002000b7
:100460000000e0000300320000002000a00188002e
:100470004440a80000000600910188008000780038
:100480000000eb0015003700e280400032a0b4000d
:100490009101ba00e280400032a0b4009102ba009b
:1004a000e280400032a0b4000002eb00472bde00e7
:1004b000f507b200602ce10004003a000059eb009f
:1004c0008301e900fdff3e00040037006128e100e0
:1004d000010032000082eb000b00070011c3ba00dc
:1004e0001101ba000604e00003003a000200e00037
:1004f000e5ff3a0000000600f607b200960188000a
:1005000082007800f5ff37003159ba008301e90015
:100510000c0032002159ba008301e90008003200c2
:100520000400e00003003a00e280400032a0b40082
:10053000f5ff370011d9ba008301e900faff3a004c
:100540008100e800e180400032a0b4000000060015
:1005500088030400000000000040da000000fe00f4
:1005600084e0a900e7006000f2ff2800cc08dd006d
:1005700033058000030161006800600002817000a3
:100580004300de003205880061006000f1f72f00b3
:100590004700dd00a20480008280600081007000be
:1005a000a1048800000006008500a900e7006000a3
:1005b00082ff2f0068006000430580000301610096
:1005c0004300de0002817000610060004205880087
:1005d0004800dd00f1ef2f00a2048000828060005f
:1005e00081007000a1048800000006000621ef00d1
:1005f00061088800800888001061a90000000600da
:100600000a21ef00710888009008880000000600a9
:10061000001020003202b6000000e9004f00de00aa
:100620000000060087c0a900e700600087e0a9007d
:10063000c808dd0000017800f38f2f000207b20028
:1006400094058000848161004811dd008381700081
:10065000e800600093058800c308de00f3ff28006f
:10066000e18060009405800084816100ce08dd0097
:10067000830171000008b20093058800f2ff2b008f
:100680004700de00b30480000301610061006000e8
:10069000028170004f00dd00b2048800f1ff2700e6
:1006a000b40480008480600081007000b104880080
:1006b000000006009011800061406000000006000c
:1006c000c211880080118800911188000000060086
:1006d0008011800066006000e60f500002003a00c2
:1006e000b011800000000600b0118000f00fb200d1
:1006f0000000060081118000e6806000e68f500057
:1007000001003200f00fb200a011880000000600c6
:10071000881f78000204780008017800cc010700e7
:10072000080040004f047800000006000000fa00b6
:10073000881f780000047800ea8157003fb99700cd
:100740008800780080382000070007000000e000e3
:10075000020035008040eb00017478004f047800ff
:100760000080fa00000006006200fa00889fbe00c8
:100770008a1f780000057800810478000204780060
:100780008300780080f92f000f004000ae030700bf
:100790009a979f00a9979f000000eb00b09f9f00d1
:1007a0001885fb008a04fb000a05ea004f55de00ad
:1007b00050022000808f54000d003200e10f5500e0
:1007c0000b003a000a017800880078002f9097000b
:1007d0009f91970003000100a0979f000000e00098
:1007e0008e0032003f9897000000e800b09f9f0005
:1007f0000a04440050022000808f5400040032009c
:100800000900e000e6ff3a003f98970084003700b7
:100810000000eb00909f9f00809f9f00f0979f003b
:10082000e0979f00d0979f00c0979f000700370078
:10083000618420000100500000004000a1832000de
:1008400061007800df98970001007000d09f9f0042
:100850008804780009047800384578008a00fb0095
:1008600060842000810107000000e000f0ff3a00f2
:10087000a1c2b300814f55000e003a00cf88970007
:100880000180e900c08f9f0010007800c09f9f008a
:100890000000e00005003d000000ea00c09f9f004e
:1008a0005f9897000020a000d09f9f000904e800f7
:1008b0000f003700c09f9f000000eb0005003700cd
:1008c000f2ff2700820f5000020032006a01b900d7
:1008d000028040000904780088047800b900fb0019
:1008e0000103b100e98f5000f5ff3600c09f9f0063
:1008f000e0c2b300984f1000020032000080eb000d
:1009000019003700a0c2b300d84f100007003a000a
:10091000cf8897000180e900c08f9f001000780009
:10092000a09f9f000804e800100037000000eb00c3
:10093000a09f9f008800780005003700f3ff270084
:10094000830f5000020032006a02b9000400410027
:1009500001047800880078003101fb000203b10037
:10096000e90f5100f5ff3600a09f9f0098447800e2
:100970008900fb00208320003c0107000000e0000c
:10098000020032000804e800010037008044eb0058
:10099000c97f9f0080c6b30080cf540004003a0096
:1009a00098cf14000a003a00664050000600370055
:1009b000c0c6b30080cf540005003a0098cf1400a1
:1009c00003003a0065404000c07f9f000804e80033
:1009d0001801fb00e3fb2f008f81410081f92f00fc
:1009e0008f804000a0f92f000f004000100007008a
:1009f0000000e00009003a00e1fb2f008f8040007a
:100a0000a0f92f000f004000530207000000e00093
:100a1000020035000804e80061ff37000080eb00a9
:100a20004f0578004f04be000080fa000000060069
:100a3000881f7800e4c6b300844f5100b60032002e
:100a400010003c006b425200844f510018003200ed
:100a500005003c0054c2b300844f5100ee00320048
:100a600084c5b3000f00370044c6b300844f510063
:100a70001400320065424200844f5100e9003a0000
:100a80001000370004c7b300844f5100d500320076
:100a90005300350065424200844f5100500032003f
:100aa00063424200844f5100de003a004c003700a0
:100ab0001181e90082087800f0009000124178006e
:100ac000d600370020629000c5c6b300854f5200a3
:100ad00007003a009102780064825200840878008e
:100ae0001402be004fabde00860378001100370011
:100af00015c7b300854f520003003200a5c6b300ee
:100b0000854f520006003a00910278006882520038
:100b1000840878005403be004402be00050037007c
:100b20001182e9008408780014027800cfa2de0068
:100b3000612bb9000498be000690be00a060900032
:100b400088c6b30088cf50000d00320028c6b3001d
:100b500088cf500004003a000402fb00cfa2de0060
:100b6000612bb9000800370048c7b30088cf500098
:100b7000030032006644440088cf500004003a006d
:100b8000cfa2de00612bb9000498be000690be0023
:100b90003002be002003be00f0009000e00f5200c3
:100ba000e08f5a00e00f5b00e08f5b0002003d0029
:100bb000d4c2b30008003700001290000418a3004c
:100bc00002003200b4c2b300030037000408a300df
:100bd0004c00320004c2b30084f1780047003700b3
:100be00020629000c5c6b300854f520006003a004f
:100bf0009102780064825200840878001402be00da
:100c00006033b8001100370015c7b300854f52009c
:100c100003003200a5c6b300854f520006003a001b
:100c20009102780068825200840878005403be0064
:100c30004402be00050037001182e90084087800f4
:100c4000140278008002eb006033b8000498be0004
:100c50000690be00a060900088c6b30088cf500008
:100c60000d00320028c6b30088cf500004003a00bf
:100c70000482fb008002eb006033b80008003700fc
:100c800048c7b30088cf50000300320066444400d8
:100c900088cf500004003a008002eb006033b800b7
:100ca0000498be000690be00801090000138a3009a
:100cb000140032003002be002003be00e00f5200dc
:100cc000e08f5a00e00f5b00e08f5b000d00320008
:100cd00081c7b300814f51000300320081c5b300ca
:100ce000814f510007003a00f000900004c3b300a8
:100cf00084f178008100e80082f178008100e8004a
:100d000071009800f000900081814100630098001c
:100d1000824078003e003700a0619000c4c6b30056
:100d20001181e90084cf5100220032000a003c000a
:100d30006442520084cf51002500320004c2e80012
:100d400084cf5100130032006842520084cf51001a
:100d50001e003a000a00370044c7b30084cf510098
:100d60001b0032006642420084cf5100180032005e
:100d70006942520084cf510014003a000500370048
:100d800082087800920078004058900080487800ef
:100d90002c0037008208780092007800600a9000ea
:100da000cfa2de00612bb9008498be008690be0001
:100db00024003700820878009200780060099000d3
:100dc000cf91de008288be001e0037001181e9004d
:100dd000820878009200780060089000800878000f
:100de000180037001181e9008208780012027800ab
:100df000cfa2de00612bb9000498be000690be00b1
:100e0000f0009000818141006300980081c7b30029
:100e1000220007000b003700f000900082f17800fc
:100e200006003700f0009000818141000204e000dc
:100e300001003a0052c2b300824978008100e80004
:100e4000710098000000eb004f04780000000600dd
:100e50008001780002003700b15978000201e900f2
:100e60000200e000fcff3a0000000600020037002c
:100e70000304e00006003200000178000200780060
:100e8000b041780081cf5100f9ff3a0001003700ee
:100e90000001eb000200780000000600fc8747001c
:100ea000889fbe008a9fbe008c9fbe008e1f780068
:100eb0000006780080c5b30080cf50000a003200e1
:100ec0007740400080cf50000a0032006940400067
:100ed00080cf50000b0032001082200080bf9f00a6
:100ee000ae0020000a0037000281200082bf9f0070
:100ef000060037001382200083bf9f008e00200071
:100f0000030037001482200084bf9f000e012000e0
:100f10003c02be002c03be000605be000404be0059
:100f200040c6b30080cf500003003200654040004f
:100f300080cf50000b003a00e00f5200e08f5a00c3
:100f4000e00f5b00e08f5b0006003d006000b80032
:100f50006011b8000404500085845800060559004b
:100f600087855900e80f5700040032004000200038
:100f7000f00f570038003a00010037003000200021
:100f8000e00f5400e08f5c00e00f5d00e08f5d003b
:100f900004003a00dc0890008d0120000100e00010
:100fa000060032008e00e900888060008fba97004a
:100fb000e5c07800f1ef9f007d01200080007800ff
:100fc0008100e900050033008b05d1000a85d300bc
:100fd0008984d3000884d300f9ff3700089ebe003f
:100fe0000a96be00120037008d06e9008e00e90067
:100ff000848060000fb99700e2c1780082fd2f0065
:101000000f01410003f17e00800078008100e900bb
:10101000050033008783d1000683d3008582d30087
:101020000482d300f9ff3700049ebe000696be007e
:101030003c02be002c03be00e00f5200e08f5a00bd
:10104000e00f5b00e08f5b008b0034000d00e000e0
:10105000e5ff3c00880037002c60900081c6b3009b
:10106000814f50000b00320006003c000004e000fd
:1010700008003200e6c05000814f50004e003a0098
:1010800004003700c1c6b300814f50004a003a0047
:10109000210037000800e00004003a005c089000de
:1010a0008d0120000000e000060032001100090060
:1010b0000e84d8000fb99700e2c07800f1ef9f00ce
:1010c0007d012000110009000e84d8000a003700bd
:1010d000110009000e04d8008d06e9000e81b90048
:1010e000020454008fb8970061417c0081fd2f00fd
:1010f0008f80400082f07e00000478000800e0004d
:10110000020032000d00e000f1ff3c00cfc4de0021
:10111000614db90025003700e00f5400e08f5c00fe
:1011200004003a005c0890008d0120000000e000ff
:10113000070032006171b9000800be0063010700ba
:101140008fb99700e3417800f3ef9f007d01200005
:101150006171b9000800be004c0107000b003700a8
:101160006171b9000800be00390107008d06e90071
:1011700000f1b900020454000fba9700e4427c0069
:1011800084fd2f000f02420005f27e000004be0025
:10119000e00f5000e08f5800020032000d00e00028
:1011a000efff3c004fcdde008a057800089ebe00b0
:1011b0000a96be0030003700e00f5400e08f5c005c
:1011c000e00f5d00e08f5d0004003a005c089000d5
:1011d0008d0120000000e000090032006172b900ba
:1011e000612bb9000800be000a01be00da01070049
:1011f0000fba970064427800f4ef9f007d01200051
:101200006172b900612bb9000800be000a01be007e
:10121000ca0107000d0037006172b900612bb900e7
:101220000800be000a01be00cf0107008d06e900dc
:1012300000f2b900040454008fba970065427c00a4
:1012400085fd2f008f82420084f27e00009ebe004a
:101250000296be003c04be002c05be00e00f540008
:10126000e08f5c00e00f5d00e08f5d000200340065
:101270000d00e000e8ff3c00e80f570010003a00c6
:101280000c1090000038a3000d003200f78f5600bc
:1012900006003e0085fd2f008f824200e5c07e00e3
:1012a00000c3b30080cf5000050032008d06e90076
:1012b00002c3b30081fd2f008f80400082f07e00ca
:1012c00078811600120e98006c00900083fd2f00ac
:1012d0008f8141008d804100ddfe07001c089000d9
:1012e000dc089000810f500006003d000080500097
:1012f000000e98000c1090000040a100001698000d
:101300000f0037000100e0000d003d008c10900040
:10131000f4806000f08f500009003a007c099000d2
:10132000fc009000810051000c0990008280500068
:10133000008050004240a90001003400000e9800d7
:101340004f0778004f06be004f05be004f04be0099
:10135000cf01b100000006000400fa00889fbe0023
:101360008a9fbe008c1f7800000478000106780078
:10137000f80d9000780090008085550008089000d6
:101380008085550018089000808555002808900039
:1013900080855500380890008085550048089000e9
:1013a000808555000002220090bf9f0000032300ab
:1013b000a0bf9f00081090000028a30015003a006d
:1013c0000b00e000130034000b0578008a0478005d
:1013d000e20f55000100360029002000c8019000ee
:1013e00009017800ee8057005800900003000100ca
:1013f000500498000000e0008c0032006808900063
:1014000009004000600c9800090555004240a90001
:10141000eeff3c00780190000200e0000c00340078
:10142000c80190008c007800580090000300010073
:10143000500498008080eb000000e0007c00320047
:10144000e80890007800900000804000600c980050
:10145000880c90000900e0001100340009057800b4
:10146000e28f5400010036002a002000c8019000dd
:101470000a017800ec80570058009000030001003a
:10148000500498000000e0006800320068089000f6
:101490000a004000600c98008a845400edff370079
:1014a000180990000200e0000c003400c801900010
:1014b000e8009000580090000300010050049800dc
:1014c0008080eb000000e00059003200e808900046
:1014d0001808900000804000600c9800a80c900054
:1014e0000900e0001100340009057800e28f540083
:1014f000010036002a002000c80190000a0178008f
:10150000ec80570058009000030001005004980040
:101510000000e00045003200680890000a0040002a
:10152000600c98008a845400edff37003809900061
:101530000200e0000e003400e8009000180890005f
:1015400080804000c8019000580090000300010016
:10155000500498008080eb000000e000340032006e
:10156000e80890003808900000804000600c980067
:10157000c80c90000900e000110034000905780053
:10158000e28f5400010036002a002000c8019000bc
:101590000a017800ec805700580090000300010019
:1015a000500498000000e00020003200680890001d
:1015b0000a004000600c98008a845400edff370058
:1015c000081090008000eb000028a30018003200f3
:1015d0000b00e000160034008b0478000905780049
:1015e000e28f5400010036002a002000c80190005c
:1015f0000a017800ee8057005800900003000100b7
:10160000500498000000e0000800320068089000d4
:101610000a004000600c98008a8454004240a900ef
:10162000eeff3c008000eb00010037008080eb0003
:10163000010078004f0678004f05be004f04be0041
:101640000080fa0000000600010878000000060093
:10165000839f68000100e00002003d006000100070
:10166000e08018000300e00002003d00600111006e
:10167000e0811900050007004f00e00002003b0078
:1016800060001000e0801800000006006022b80032
:10169000060220000000d0008180d2000482d20027
:1016a0008582d2000000a0000202520083825a000c
:1016b000030031000202420083824a000000a100c0
:1016c0000603e900f3ff3a0000000600efff070001
:1016d0000400be0000000600889fbe008a9fbe0076
:1016e00030044200b0844a0030054b0090854b0026
:1016f0006000b1000898be000a90be000440e100fe
:1017000005c8e10006d0e10007d8e1000200310081
:10171000680040001008e8004f05be004f04be00fe
:1017200000000600889fbe008a9fbe003004be00f5
:101730002005be000418540005985c0006185d00e2
:1017400007985d00110020000440e10005c8e10099
:1017500006d0e10007d8e100010039008000eb006d
:10176000108810004f05be004f04be0000000600a8
:101770001200fa00889fbe008a9fbe008c9fbe00a8
:10178000e0b79f00f1b79f0082bf9f0093bf9f000b
:101790000605be000404be000000eb00d0b79f00a9
:1017a000c0b79f00b0b79f00a0b79f0090b79f0041
:1017b0000006eb005fb19700cfb0970082014100b7
:1017c0003fb097000200e00004003d003700070032
:1017d0007e805700c0ff070003003700330007007a
:1017e0007e805700cfff0700dfb697000d00e000b6
:1017f0000c0035006fb29700ffb297000fbb970047
:101800009fbb970010002000010020006011b8006d
:1018100000027200818272000203730083837300ee
:101820001b0007000c06e80001042000810f560091
:10183000e0ff3a000d00e00004003d000802be0099
:101840000a03be007e805700a3ff07005fa8970031
:101850000000e00005003a001fb29700afb2970009
:101860003fb39700cfb39700090007006fb0970010
:10187000ffb097000fb997009fb997004f06be00c1
:101880004f05be004f04be000080fa0000000600b5
:101890000100070000000600a4b79f00b5b79f0035
:1018a000c6b79f00d7b79f00000006004f09de00b3
:1018b00082817100b3b79f004f01de00818040003c
:1018c00082807000a1b79f008fb097004f09de00a3
:1018d000000040000200700090b79f007fa89700b2
:1018e0004f01de00818040008280700081b79f0040
:1018f0000d0007004f3ade000000400004007000b9
:10190000f0af9f00080007000402420085824a00f1
:1019100006034b0087834b00dfff07000802be0071
:101920000a03be00000006002fb29700bfb2970066
:101930004fb39700dfb3970000000600881f7800c0
:1019400018002000881f780089ff07008f87e900b2
:101950004f04780000000600801feb0084ff0700a2
:101960008f87e90000000600889fbe008a9fbe00a6
:10197000e00f5000e08f5800e00f5900e08f590051
:101980000c003d006044b8006055b80000005400f1
:1019900081805c0002015d0083815d0018002000f1
:1019a0001500070008003d00180007000004eb00c8
:1019b000050037000004eb000f00070002003d00a7
:1019c0001200070018002000dcff07000800e000fc
:1019d000060032006022b8006033b80000005200f8
:1019e00081805a0002015b0083815b004f05be00cd
:1019f0004f04be0000000600e00f5200e08f5a00c6
:101a0000e00f5b00e08f5b00000006006044b80060
:101a10006055b8000402540085825c0006035d0036
:101a200087835d0000000600889fbe008a9fbe007d
:101a30008c1f7800e00f5000e08f5800e00f590035
:101a4000e08f59000d003d006044b8006055b800bb
:101a50000000540081805c0002015d0083815d0014
:101a60001c0020000820e10009a8e1000ab0e10004
:101a70000bb8e1000d003d00080037000006eb0048
:101a8000e00f5200e08f5a00e00f5b00e08f5b0038
:101a900006003d006044b8006055b80004025400e0
:101aa00085825c0006035d0087835d00aaff070056
:101ab0000c00e000060032006022b8006033b8007d
:101ac0000000520081805a0002015b0083815b00ac
:101ad0004f0678004f05be004f04be000000060010
:020000040000fa
:101ae000504f0000530a0000256400000000000071
:020000040000fa
:101af0000000fa00c8e2a800cee2a800a20220007e
:101b0000d155290000402c00edfa0700d0f52f0038
:101b1000c4fa0700c942a800cf42a8000080fa001a
:101b2000000006003600f800809fbe00829fbe00c5
:101b3000849fbe00869fbe000000fa00620007007e
:101b400087c0a9000080fa004f03be004f02be000c
:101b50004f01be004f00be003600f90000400600f5
:101b60000000fa0087e0a9000080fa0000400600ab
:101b70000000fa0030358000f001b30030358800f5
:101b80005136800000fe2f00008060005000b3003e
:101b9000503688000080fa00000006000000fa00bd
:101ba0003135800000fe2f0000806000a000b300ef
:101bb000303588005136800000fe2f000080600024
:101bc000503688000080fa00000006000200fa008b
:101bd000004f7800000000009111800000202000dc
:101be000008060000000e000fbff3a001e80fb0068
:101bf000c0fa070008c8bf001e40400008e8b70050
:101c00000080fa00000006000400fa00004f78008f
:101c10001147980022479800d5ff070000c0eb004d
:101c2000eaff070000c0eb00e8ff07000868ef00cc
:101c30001e407800e5ff07001e40900000c0e8004d
:101c4000e2ff07002e409000e0ff07000080fa004e
:101c5000000006000600fa002047980021079800bf
:101c60000040eb00004f7800060037001e80fb00ac
:101c7000ae0090000080400010407800d3ff0700c5
:101c80001e4fe8002e4090009e40780080cf50000c
:101c9000f6ff39000080fa00000006000000fa009c
:101ca00008c8bf0000c0ea00c8ff0700000000002d
:101cb00057fa07000004e000fdff3a00b7ff0700f5
:101cc0000080fa00000006000200fa0065003700fc
:101cd0007ffa070000407800004f780070408000d5
:101ce000e50f400006003a001e407800e14f40003a
:101cf00003003a00c0ff2f007040880059003700f1
:101d000070408000e40f40000a003a001e40780056
:101d1000e14f400007003a00d0ff2f0070408800dc
:101d20000868ef00d084200011c0b300014878009b
:101d30004c00370070408000e30f400006003a007e
:101d4000e0ff2f00704088009e407800c084200093
:101d5000014878004300370070408000e20f4000e7
:101d60000f003a001e407800e54f50000c003e0086
:101d70000080eb0070408800c08420009040780014
:101d80001e40780000c0400008e8b7001e40780000
:101d900080c0e900d084200001487800310037007d
:101da00070408000e10f400005003a000e28ef006f
:101db0000e007800900078007142880029003700fa
:101dc000704080000000e00014003500d084200046
:101dd000104078008080fb0070408000808f5000b1
:101de0000e00340070408000000178000185200062
:101df000810041001e417800824878000000e80020
:101e00007040880081802000914078001e4078005a
:101e100000c0400008e8b70012003700d08420005e
:101e2000104078008080fb0070408000808f500060
:101e30000a003a009e40780008c8bf0000c0600059
:101e40000004e00005003a00100020006040880017
:101e5000b0ff2f007040880002003700b0ff2f0055
:101e60007040880013fa07000004e00098ff3a0071
:101e70000080fa00000006000200fa00004f78001f
:101e800012c0b30021c0b3001e4078005eff0700ff
:101e900082ff07000080fa00000006000400fa003c
:101ea000004f7800114798002247980022c0b300e5
:101eb00021c0b3001e40780053ff07001e40900071
:101ec00042ff07002e40900040ff070073ff07000d
:101ed0000080fa00000006000600fa00004f7800bb
:101ee0001147980022479800230798002e40900041
:101ef0000040e80032c0b300804078001e40780007
:101f000041ff07001e40900030ff0700ae00900028
:101f10002e4090004fff070060ff07000080fa008e
:101f2000000006000600fa00004f780011479800f4
:101f300022479800230798002e4090000040e800b8
:101f400042c0b300804078001e4078002eff07009a
:101f50001e4090001dff0700ae0090002e40900034
:101f60003cff07004dff07000080fa00000006005c
:101f70000200fa00004f780052c0b3008040eb002e
:101f80001e40780020ff070044ff07000080fa0091
:101f9000000006000200fa00004f780062c0b300a3
:101fa0008040eb001e40780017ff07003bff070052
:101fb0000080fa00000006000200fa00004f7800de
:101fc0001e80fb00cf80de00020320000300200003
:101fd000820f5000838f580036003e0000600100e1
:101fe00032003700330037002e0037002d00370055
:101ff0002c0037002b0037002c0037002d00370055
:102000002a0037002b0037002a0037002500370050
:102010002400370023003700240037002500370054
:10202000200037001f0037001e0037001d0037005a
:102030001e0037001f0037001c0037001d0037004e
:10204000180037001700370016003700150037005a
:102050001400370013003700140037001500370054
:10206000120037001300370010003700110037004e
:102070000e0037000f0037000c0037000d0037004e
:102080000a0037000b003700060037000500370054
:102090000400370007003700020037000100370056
:1020a0000200370010c0b3000300370020c0b300a7
:1020b000010037000040eb000080fa00000006003d
:1020c0000400fa0020479800314798000040eb00d8
:1020d000004f78000040eb001047980005003700e3
:1020e000be4090002e4090007800070010479800f6
:1020f0001e4fe8001e407800e94f500003003c00ee
:102100001e4090000004e000f5ff32001e409000e9
:102110000080fb000000e9004f00de000040780076
:102120000080fa00000006000600fa002047980030
:1021300031479800220798000040eb00004f7800dc
:102140000040eb0010479800060037002e01900079
:10215000be4090002e4090000f00070010479800ee
:102160001e4fe8001e407800e94f500003003c007d
:102170001e4090000004e000f4ff32001e4090007a
:102180000080fb000000e9004f00de000040780006
:102190000080fa00000006000600fa00881f7800a0
:1021a00020479800314798002207980010c0b300dc
:1021b000004f78000c28ef00b0ff2f00704088001f
:1021c000640447003e4090007bff070088017800d0
:1021d00000417800be4090002e4090003eff070076
:1021e000a000200050408800000000005040800007
:1021f0000000e00003003200604080000000e000ca
:10220000faff3200604080000000e0002900320048
:10221000c0842000904078002e40900080cf500075
:10222000030032000040eb00004f7800230037002d
:1022300070428000610060000000e0001a003a0077
:1022400070428000620060000000e00016003a006a
:1022500070428000640060000000e00012003a005c
:1022600070428000680060000000e0000e003a004c
:1022700070428000700060000000e0000a003a0038
:102280007142800000022000008060000000e00039
:1022900005003a00714280000004200000806000c8
:1022a0000000e000050032000040eb00004f780025
:1022b000020037000040eb00004f78001e4078001d
:1022c0004f0478000080fa00000006000400fa00c5
:1022d000204798003147980010c0b300004f7800a5
:1022e0000c28ef00b0ff2f00704088003e409000a7
:1022f00031ff070000417800be4090002e40900062
:10230000e6fe0700a000200050408800000000000a
:10231000504080000000e000030032006040800078
:102320000000e000faff3200604080000000e000a2
:1023300029003200c0842000904078002e40900098
:1023400080cf5000030032000040eb00004f7800c7
:102350002300370070428000610060000000e00050
:102360001a003a0070428000620060000000e00045
:1023700016003a0070428000640060000000e00037
:1023800012003a0070428000680060000000e00027
:102390000e003a0070428000700060000000e00013
:1023a0000a003a00714280000002200000806000b4
:1023b0000000e00005003a007142800000042000a7
:1023c000008060000000e000050032000040eb00eb
:1023d000004f7800020037000040eb00004f78000b
:1023e0001e4078000080fa00000006000400fa0099
:1023f000204798000040eb00004f780041c2b30036
:102400002e4090002eff0700004f78001e407800fd
:102410000004e00009003200008520001040780030
:102420008080fb0010852000104078000080fb00b9
:102430004800dd0000804000010037000080eb0014
:102440000080fa00000006000000fa00c862a9003f
:10245000c882a900c8a2a900c8c2a900c902a900cf
:10246000c922a90030c3b300a500070020c3b300f0
:10247000a300070080c2b300a1000700e0c0b300c2
:102480009f00070010c0b3009d0007000080fa0005
:10249000000006000200fa00004f78001e80fb00da
:1024a0004700de0000407800614060000080fb00d3
:1024b000610060004900dd0052168000f1df2f004e
:1024c0008100610001007000501688008002200029
:1024d000010020006a0107001e80fb004600de00ac
:1024e0000040780061406000614060006140600031
:1024f0000080fb00610060004800dd005216800093
:10250000f1ef2f008100610001007000501688007b
:102510008002200001002000590107001e80fb00fe
:102520004500de00004078006140600061406000ce
:10253000614060000080fb00610060004600dd003b
:1025400052168000f1fb2f00810061000100700035
:10255000501688008002200001002000480107007a
:102560001e80fb004400de000040780061406000f7
:1025700061406000614060000080fb00610060001d
:102580004500dd0052168000f1fd2f008100610042
:102590000100700050168800800220000100200019
:1025a00037010700ca82a800800220000100200035
:1025b00033010700ca82a900800220000100200028
:1025c0002f0107001e80fb004300de000040780062
:1025d0006140600061406000614060000080fb007d
:1025e000610060004900dd0052168000f1df2f001d
:1025f00081006100010070005016880080022000f8
:10260000010020001e0107001e80fb004200de00ca
:1026100000407800614060006140600061406000ff
:102620000080fb00610060004800dd005216800061
:10263000f1ef2f008100610001007000501688004a
:1026400080022000010020000d0107001e80fb0019
:102650000000d100004078006140600061406000ef
:10266000614060000080fb00610060004600dd000a
:1026700052168000f1fb2f00810061000100700004
:10268000501688008002200001002000fc00070096
:102690009e40780061c06000614060006140600061
:1026a0000080fb00610060004500dd0052168000e4
:1026b000f1fd2f00810061000100700050168800bc
:1026c0008002200001002000ed000700ca82a8005f
:1026d0008002200001002000e9000700ca82a90052
:1026e0008002200001002000e500070000c429004e
:1026f00001002000e20007000080fa000000060050
:102700000200fa00004f7800ca62a900800220008f
:1027100001002000da0007001e4078005dff07007e
:102720000080fa00000006000200fa00004f780066
:10273000ca62a8008002200001002000d00007002b
:102740001e40780053ff07000080fa0000000600da
:102750000200fa00000f780010c0b300e8ff070085
:1027600020c0b300e6ff07000c0037001e00780011
:1027700010407800ea4f500004003a0000ccb3004b
:10278000dfff07001e0fe800040037001e0078007e
:10279000104078001e0fe800e3ff07001e007800dd
:1027a000104078000004e000f0ff3a000080fa00da
:1027b000000006000000fa0081e0a9000080eb00a4
:1027c0006019880051c32000d0fa2d0087f7070058
:1027d000c0ff2f0062f7070011272000d0fa2d005c
:1027e00087f70700a0ff2f006ff707008013200076
:1027f000500888000080fa00000006000000fa007f
:102800006005800000c0a00000d0a00000e0a10092
:10281000600588008660a9009660a8000080fa0024
:10282000000006003400f800881f7800080020002f
:10283000a80188004f0478000000fa0084e0a90095
:102840000080fa003400f900004006000000fa00a1
:102850008820a9000080fa0000400600801f780050
:102860003400f80000002000a00188000000fa00f9
:10287000504080000000e000030032005040800023
:102880000000e900504088008500a9000080fa009f
:102890003400f9004f007800004006003a00fa00ca
:1028a000301f9800411f98006e000700e3004700aa
:1028b000310009008058eb000000eb00000f7800a9
:1028c00010c0b300204798001e0078000001780077
:1028d000e1c1b30060c1b30013fe0700f03f200068
:1028e0001e00500000017800e1c1b30080c1b300b8
:1028f0000dfe0700630047009e1f780001d72800e7
:10290000811f780089f70700e487570063004700bc
:102910008fff07002e4090000000fb0000004000e9
:102920001e0f4000f03f20009e007800808f500076
:10293000070036002e4090000040ea002047980033
:102940002e4090000000fb00000040001e0f4000e1
:1029500000202100a107200049000700daff37000e
:020000040000fa
:102960004c0800000e0000000000000008080000f5
:1029700006000000000000000e0800000200000039
:1029800002000000fbff000000080000080000003b
:1029900000000000320800001a00000002000000e1
:1029a000686a6c00747a4c000000010000020000ac
:1029b0000400080000100000000020002b2d230060
:1029c000300000001008000022000000020000009b
:1029d0003031320033343500363738003941420067
:1029e0004344450046003000313233003435360070
:1029f00037383900616263006465660000000000da
:042a00005c158000e1
:020000040000fa
:102a04000000fa00313a800000e02f00808060006e
:102a14006009200001007000303a8800213a8000eb
:102a240000fe2f00008060005000b300203a8800b0
:102a3400203a80000060a1000070a100203a8800c4
:102a440000000000113a80000002200000806000b5
:102a54000000e000fbff32000080fa0000000600e6
:102a64000000fa00e6ff070051ff07001ffc070003
:0c2a740074fe07000080fa00000006005d
:020000040000fa
:102a8000f03fb1000180b10006003500ee030900ff
:102a900000000000403fb1000180b100fbff3d009d
:102aa0001000b000203fb000020035000080090097
:082ab000000000000000060018
:020000040000fa
:042ab800000000001a
:020000040000fa
:0200000401f009
:04000c0079ff000078
:020000040000fa
:0200000401f009
:04001000bbff000032
:020000040000fa
:0200000401f009
:040014007fff00006a
:020000040000fa
:0200000401f009
:04001800ffff0000e6
:020000040000fa
:0200000401f009
:04001c00dfff000002
:00000001FF
